{
  "_format": "hh-sol-artifact-1",
  "contractName": "EkMatVoting",
  "sourceName": "contracts/core/EkMatVoting.sol",
  "abi": [
    {
      "inputs": [
        {
          "internalType": "address",
          "name": "verifierAddress",
          "type": "address"
        }
      ],
      "stateMutability": "nonpayable",
      "type": "constructor"
    },
    {
      "inputs": [],
      "name": "AlreadyAdmin",
      "type": "error"
    },
    {
      "inputs": [],
      "name": "CandidateAlreadyExists",
      "type": "error"
    },
    {
      "inputs": [],
      "name": "CandidateNotFound",
      "type": "error"
    },
    {
      "inputs": [],
      "name": "ElectionAlreadyExists",
      "type": "error"
    },
    {
      "inputs": [],
      "name": "ElectionAlreadyStarted",
      "type": "error"
    },
    {
      "inputs": [],
      "name": "ElectionEnded",
      "type": "error"
    },
    {
      "inputs": [],
      "name": "ElectionNotActive",
      "type": "error"
    },
    {
      "inputs": [],
      "name": "ElectionNotFound",
      "type": "error"
    },
    {
      "inputs": [],
      "name": "ElectionNotStarted",
      "type": "error"
    },
    {
      "inputs": [],
      "name": "InvalidProof",
      "type": "error"
    },
    {
      "inputs": [],
      "name": "InvalidTimeRange",
      "type": "error"
    },
    {
      "inputs": [],
      "name": "LastAdminRemovalForbidden",
      "type": "error"
    },
    {
      "inputs": [],
      "name": "MerkleRootMismatch",
      "type": "error"
    },
    {
      "inputs": [],
      "name": "NotAdmin",
      "type": "error"
    },
    {
      "inputs": [],
      "name": "NotAdminAccount",
      "type": "error"
    },
    {
      "inputs": [],
      "name": "NullifierAlreadyUsed",
      "type": "error"
    },
    {
      "inputs": [],
      "name": "VerifierAddressZero",
      "type": "error"
    },
    {
      "inputs": [],
      "name": "ZeroAddress",
      "type": "error"
    },
    {
      "anonymous": false,
      "inputs": [
        {
          "indexed": true,
          "internalType": "address",
          "name": "account",
          "type": "address"
        }
      ],
      "name": "AdminAdded",
      "type": "event"
    },
    {
      "anonymous": false,
      "inputs": [
        {
          "indexed": true,
          "internalType": "address",
          "name": "account",
          "type": "address"
        }
      ],
      "name": "AdminRemoved",
      "type": "event"
    },
    {
      "anonymous": false,
      "inputs": [
        {
          "indexed": true,
          "internalType": "string",
          "name": "electionId",
          "type": "string"
        },
        {
          "indexed": false,
          "internalType": "string",
          "name": "candidateId",
          "type": "string"
        },
        {
          "indexed": false,
          "internalType": "string",
          "name": "name",
          "type": "string"
        },
        {
          "indexed": false,
          "internalType": "string",
          "name": "ipfsCid",
          "type": "string"
        }
      ],
      "name": "CandidateAdded",
      "type": "event"
    },
    {
      "anonymous": false,
      "inputs": [
        {
          "indexed": true,
          "internalType": "string",
          "name": "electionId",
          "type": "string"
        },
        {
          "indexed": false,
          "internalType": "string",
          "name": "name",
          "type": "string"
        },
        {
          "indexed": false,
          "internalType": "uint256",
          "name": "startTime",
          "type": "uint256"
        },
        {
          "indexed": false,
          "internalType": "uint256",
          "name": "endTime",
          "type": "uint256"
        },
        {
          "indexed": false,
          "internalType": "bytes32",
          "name": "merkleRoot",
          "type": "bytes32"
        },
        {
          "indexed": false,
          "internalType": "string",
          "name": "manifestCid",
          "type": "string"
        }
      ],
      "name": "ElectionCreated",
      "type": "event"
    },
    {
      "anonymous": false,
      "inputs": [
        {
          "indexed": true,
          "internalType": "string",
          "name": "electionId",
          "type": "string"
        },
        {
          "indexed": false,
          "internalType": "bool",
          "name": "active",
          "type": "bool"
        }
      ],
      "name": "ElectionToggled",
      "type": "event"
    },
    {
      "anonymous": false,
      "inputs": [
        {
          "indexed": true,
          "internalType": "address",
          "name": "newVerifier",
          "type": "address"
        }
      ],
      "name": "VerifierUpdated",
      "type": "event"
    },
    {
      "anonymous": false,
      "inputs": [
        {
          "indexed": true,
          "internalType": "string",
          "name": "electionId",
          "type": "string"
        },
        {
          "indexed": false,
          "internalType": "string",
          "name": "candidateId",
          "type": "string"
        },
        {
          "indexed": false,
          "internalType": "bytes32",
          "name": "nullifier",
          "type": "bytes32"
        },
        {
          "indexed": false,
          "internalType": "string",
          "name": "cid",
          "type": "string"
        }
      ],
      "name": "VoteCast",
      "type": "event"
    },
    {
      "inputs": [
        {
          "internalType": "address",
          "name": "account",
          "type": "address"
        }
      ],
      "name": "addAdmin",
      "outputs": [],
      "stateMutability": "nonpayable",
      "type": "function"
    },
    {
      "inputs": [
        {
          "internalType": "string",
          "name": "electionId",
          "type": "string"
        },
        {
          "internalType": "string",
          "name": "candidateId",
          "type": "string"
        },
        {
          "internalType": "string",
          "name": "name",
          "type": "string"
        },
        {
          "internalType": "string",
          "name": "ipfsCid",
          "type": "string"
        }
      ],
      "name": "addCandidate",
      "outputs": [],
      "stateMutability": "nonpayable",
      "type": "function"
    },
    {
      "inputs": [],
      "name": "adminCount",
      "outputs": [
        {
          "internalType": "uint256",
          "name": "",
          "type": "uint256"
        }
      ],
      "stateMutability": "view",
      "type": "function"
    },
    {
      "inputs": [
        {
          "internalType": "string",
          "name": "electionId",
          "type": "string"
        },
        {
          "internalType": "string",
          "name": "candidateId",
          "type": "string"
        },
        {
          "internalType": "bytes",
          "name": "proof",
          "type": "bytes"
        },
        {
          "internalType": "uint256[]",
          "name": "publicInputs",
          "type": "uint256[]"
        },
        {
          "internalType": "bytes32",
          "name": "nullifier",
          "type": "bytes32"
        },
        {
          "internalType": "string",
          "name": "cid",
          "type": "string"
        }
      ],
      "name": "castVote",
      "outputs": [],
      "stateMutability": "nonpayable",
      "type": "function"
    },
    {
      "inputs": [
        {
          "internalType": "string",
          "name": "electionId",
          "type": "string"
        },
        {
          "internalType": "string",
          "name": "name",
          "type": "string"
        },
        {
          "internalType": "uint256",
          "name": "startTime",
          "type": "uint256"
        },
        {
          "internalType": "uint256",
          "name": "endTime",
          "type": "uint256"
        },
        {
          "internalType": "bytes32",
          "name": "merkleRoot",
          "type": "bytes32"
        },
        {
          "internalType": "string",
          "name": "manifestCid",
          "type": "string"
        }
      ],
      "name": "createElection",
      "outputs": [],
      "stateMutability": "nonpayable",
      "type": "function"
    },
    {
      "inputs": [
        {
          "internalType": "string",
          "name": "electionId",
          "type": "string"
        }
      ],
      "name": "getCandidates",
      "outputs": [
        {
          "components": [
            {
              "internalType": "string",
              "name": "id",
              "type": "string"
            },
            {
              "internalType": "string",
              "name": "name",
              "type": "string"
            },
            {
              "internalType": "string",
              "name": "ipfsCid",
              "type": "string"
            },
            {
              "internalType": "uint256",
              "name": "voteCount",
              "type": "uint256"
            }
          ],
          "internalType": "struct EkMatVoting.Candidate[]",
          "name": "",
          "type": "tuple[]"
        }
      ],
      "stateMutability": "view",
      "type": "function"
    },
    {
      "inputs": [
        {
          "internalType": "string",
          "name": "electionId",
          "type": "string"
        }
      ],
      "name": "getElection",
      "outputs": [
        {
          "components": [
            {
              "internalType": "string",
              "name": "id",
              "type": "string"
            },
            {
              "internalType": "string",
              "name": "name",
              "type": "string"
            },
            {
              "internalType": "uint64",
              "name": "startTime",
              "type": "uint64"
            },
            {
              "internalType": "uint64",
              "name": "endTime",
              "type": "uint64"
            },
            {
              "internalType": "bytes32",
              "name": "merkleRoot",
              "type": "bytes32"
            },
            {
              "internalType": "string",
              "name": "manifestCid",
              "type": "string"
            },
            {
              "internalType": "bool",
              "name": "active",
              "type": "bool"
            },
            {
              "internalType": "bool",
              "name": "exists",
              "type": "bool"
            }
          ],
          "internalType": "struct EkMatVoting.Election",
          "name": "",
          "type": "tuple"
        }
      ],
      "stateMutability": "view",
      "type": "function"
    },
    {
      "inputs": [],
      "name": "getElectionIds",
      "outputs": [
        {
          "internalType": "string[]",
          "name": "",
          "type": "string[]"
        }
      ],
      "stateMutability": "view",
      "type": "function"
    },
    {
      "inputs": [
        {
          "internalType": "address",
          "name": "",
          "type": "address"
        }
      ],
      "name": "isAdmin",
      "outputs": [
        {
          "internalType": "bool",
          "name": "",
          "type": "bool"
        }
      ],
      "stateMutability": "view",
      "type": "function"
    },
    {
      "inputs": [
        {
          "internalType": "string",
          "name": "electionId",
          "type": "string"
        },
        {
          "internalType": "bytes32",
          "name": "nullifier",
          "type": "bytes32"
        }
      ],
      "name": "isNullifierUsed",
      "outputs": [
        {
          "internalType": "bool",
          "name": "",
          "type": "bool"
        }
      ],
      "stateMutability": "view",
      "type": "function"
    },
    {
      "inputs": [
        {
          "internalType": "address",
          "name": "account",
          "type": "address"
        }
      ],
      "name": "removeAdmin",
      "outputs": [],
      "stateMutability": "nonpayable",
      "type": "function"
    },
    {
      "inputs": [
        {
          "internalType": "string",
          "name": "electionId",
          "type": "string"
        },
        {
          "internalType": "bytes32",
          "name": "root",
          "type": "bytes32"
        }
      ],
      "name": "setMerkleRoot",
      "outputs": [],
      "stateMutability": "nonpayable",
      "type": "function"
    },
    {
      "inputs": [
        {
          "internalType": "address",
          "name": "verifierAddress",
          "type": "address"
        }
      ],
      "name": "setVerifier",
      "outputs": [],
      "stateMutability": "nonpayable",
      "type": "function"
    },
    {
      "inputs": [
        {
          "internalType": "string",
          "name": "electionId",
          "type": "string"
        },
        {
          "internalType": "bool",
          "name": "isActive",
          "type": "bool"
        }
      ],
      "name": "toggleElectionActive",
      "outputs": [],
      "stateMutability": "nonpayable",
      "type": "function"
    },
    {
      "inputs": [],
      "name": "verifier",
      "outputs": [
        {
          "internalType": "contract IVerifier",
          "name": "",
          "type": "address"
        }
      ],
      "stateMutability": "view",
      "type": "function"
    }
  ],
  "bytecode": "0x6080346100f257601f611a5538819003918201601f19168301916001600160401b038311848410176100f7578084926020946040528339810103126100f257516001600160a01b038116908190036100f2576000903382528160205260408220600160ff1982541617905560018055604051337f44d6d25963f097ad14f29f06854a01f575648a1ef82f30e562ccd3889717e3398480a281156100e35750600780546001600160a01b03191682179055604051917fd24015cc99cc1700cafca3042840a1d8ac1e3964fd2e0e37ea29c654056ee3279080a2611947908161010e8239f35b63217b186d60e21b8152600490fd5b600080fd5b634e487b7160e01b600052604160045260246000fdfe608080604052600436101561001357600080fd5b60003560e01c9081631785f53c14611493575080631f08e010146110d357806324d7806c146110905780632b7832b3146110725780632b7ac3f31461104957806342b03cc914610b3257806345534763146108ac5780634771b573146107245780635437988d1461069657806366e1e6e1146105cc57806370480275146104e8578063982ec1de146102a9578063b7aafa871461020c578063f4241c02146101b25763f5baeeca146100c457600080fd5b346101ad5760003660031901126101ad576006546100e1816118e6565b906100ef60405192836117bd565b808252602090818301908160066000527ff652222313e28459528d920b65115c16c04f3efc82aaedc97be59f3f377c0d3f6000915b83831061018b5750505050604051918083019381845251809452604083019360408160051b85010192916000955b82871061015f5785850386f35b90919293828061017b600193603f198a820301865288516115a2565b9601920196019592919092610152565b600186819261019c859a999a611840565b815201920192019190959495610124565b600080fd5b346101ad5760406101ec6101c5366115e2565b929193908151938185926020840197883782019060208201520360208101845201826117bd565b5190206000526005602052602060ff604060002054166040519015158152f35b346101ad5761021a366115e2565b9133600052600060205260ff6040600020541615610297576020908260405193849283378101600281520301902060ff600582015460081c1615610285576001600160401b036002820154164210156102735760030155005b60405163d54e430760e01b8152600490fd5b6040516305ce45f760e51b8152600490fd5b604051637bfa4b9f60e01b8152600490fd5b346101ad5760c03660031901126101ad576001600160401b036004358181116101ad576102da903690600401611575565b6024358381116101ad576102f2903690600401611575565b9091604435606435956084359060a4358181116101ad57610317903690600401611575565b92909133600052600060205260ff604060002054161561029757604051868a82376020818881016002815203019020600581019160ff835460081c166104d657868c11156104c457846004838e89948f8f8f908f61037c90610385946103c99c6116a2565b600186016116a2565b60028301916fffffffffffffffff000000000000000083549160401b16918d16906fffffffffffffffffffffffffffffffff191617179055866003820155016116a2565b805461ffff191661010017905560065494600160401b8610156104ae576001860180600655861015610498578861044c827f6e9ce76b4a60b593edfeda0aaf0c2a3e2ebd12cf913b2978d7421a3334998a9c9b6104939960066000527ff652222313e28459528d920b65115c16c04f3efc82aaedc97be59f3f377c0d3f016116a2565b8160405192839283378101600081520390209861047660405198899860a08a5260a08a0191611765565b946020880152604087015260608601528483036080860152611765565b0390a2005b634e487b7160e01b600052603260045260246000fd5b634e487b7160e01b600052604160045260246000fd5b60405163536a71af60e01b8152600490fd5b6040516339136f8360e21b8152600490fd5b346101ad5760203660031901126101ad576004356001600160a01b038116908190036101ad5733600052600060205260ff60406000205416156102975780156105ba5780600052600060205260ff604060002054166105a8578060005260006020526040600020600160ff1982541617905560015460018101809111610592576001557f44d6d25963f097ad14f29f06854a01f575648a1ef82f30e562ccd3889717e339600080a2005b634e487b7160e01b600052601160045260246000fd5b604051631c3681a560e11b8152600490fd5b60405163d92e233d60e01b8152600490fd5b346101ad5760403660031901126101ad576004356001600160401b0381116101ad576105fc903690600401611575565b602435918215158093036101ad5733600052600060205260ff6040600020541615610297576005604051838382376020818581016002815203019020019182549160ff8360081c1615610285577f9676d2a574f0c288aa7e72b2b141ddd11d00987422ecc7f56300db44870c27cc9360209360ff87169060ff191617905581604051928392833781016000815203902092604051908152a2005b346101ad5760203660031901126101ad576004356001600160a01b038116908190036101ad5733600052600060205260ff604060002054161561029757801561071257600780546001600160a01b031916821790557fd24015cc99cc1700cafca3042840a1d8ac1e3964fd2e0e37ea29c654056ee327600080a2005b60405163217b186d60e21b8152600490fd5b346101ad576020806003193601126101ad576001600160401b03906004358281116101ad57610757903690600401611575565b60405192918290610767856117a1565b600060e0606096878152878582015282604082015282888201528260808201528760a08201528260c082015201528260405193849283378101600281520301902090604051926107b6846117a1565b6107bf83611840565b84526107cd60018401611840565b82850190815260028401549360408601908786168252878488019660401c168652600381015460808801908152600561080860048401611840565b9260a08a0193845201549460c089019760ff87161515895260ff60e08b019760081c161580158852610285578a916040519b8c9b8a8d52518c6101009b8c9101526101208d01610857916115a2565b9751601f198d8a03810160408f015298610870916115a2565b965116908b0152511660808901525160a088015251918682030160c0870152610898916115a2565b9251151560e0850152511515908301520390f35b346101ad576020806003193601126101ad576001600160401b03906004358281116101ad576108df903690600401611575565b90926040519282858537828401938181600296878152030190209360405193610907856117a1565b61091086611840565b8552600196610920888801611840565b848701528287015494808616604088015260609560401c168587015260039560ff6005888a01549960809a8b85015261095b60048201611840565b60a08501520154818116151560c084015260081c16159060e08215910152610285579280969493826040999799519384928337810189815203019020958654916109a4836118e6565b976109b2604051998a6117bd565b838952601f196109c1856118e6565b0160005b818110610af757505060005b848110610a7a57505050505060405193808501918186528651809352604086018260408560051b8901019801946000925b858410610a0f57888a0389f35b909192939495968580829b603f198c82030187528a51908580610a61610a4f610a3f86518c87528c8701906115a2565b87870151868203898801526115a2565b604086015185820360408701526115a2565b9301519101529b99019796959190910193019190610a02565b610a8b81839b999b9a97989a611824565b508460405191610a9a83611786565b610aa381611840565b8352610ab08d8201611840565b89840152610abf868201611840565b6040840152015488820152610ad4828a6118fd565b52610adf81896118fd565b506000198114610592578901989698979594976109d1565b988096979960409b999b51610b0b81611786565b898152898382015289604082015260008a82015282828c01015201999799989695986109c5565b346101ad5760803660031901126101ad576004356001600160401b0381116101ad57610b62903690600401611575565b6024356001600160401b0381116101ad57610b81903690600401611575565b6044356001600160401b0381116101ad57610ba0903690600401611575565b93906064356001600160401b0381116101ad57610bc1903690600401611575565b91909233600052600060205260ff60406000205416156102975760ff6005604051838b82376020818581016002815203019020015460081c161561028557610c0a3686886117de565b60208151910120604051828a823760208184810160048152030190208160005260205260406000205461103757604051828a8237602081848101600381520301902060405190610c5982611786565b610c6436898b6117de565b8252610c71368b876117de565b6020830152610c813687896117de565b6040830152600060608301528054600160401b8110156104ae57610caa91600182018155611824565b9190916110215780518051906001600160401b0382116104ae578190610cda82610cd48754611614565b8761164e565b602090601f8311600114610fb557600092610faa575b50508160011b916000199060031b1c19161782555b60208101518051906001600160401b0382116104ae578190610d3782610d2e6001880154611614565b6001880161164e565b602090601f8311600114610f3857600092610f2d575b50508160011b916000199060031b1c19161760018301555b60408101518051906001600160401b0382116104ae57610d9582610d8c6002870154611614565b6002870161164e565b602090601f8311600114610e895760607f9483fd0b4b11025ec8fdb9fb2b8b0a74ef13c0c1ec74dd4a2f2d3a8926ad0b7d9d9e94846104939c9b9a9895610e709a9895600395600092610e7e575b50508160011b9160001990861b1c19161760028501555b015191015560405183838237602081858101600381520301902054906040518484823760208186810160048152030190209060005260205260406000205581604051928392833781016000815203902098610e6260405198899860608a5260608a0191611765565b918783036020890152611765565b918483036040860152611765565b015190503880610de3565b906002850160005260206000209160005b601f1985168110610f1557507f9483fd0b4b11025ec8fdb9fb2b8b0a74ef13c0c1ec74dd4a2f2d3a8926ad0b7d9d9e94600185610e709a98956003956104939f9e9d9b9895606096601f19811610610efd575b505050811b016002850155610dfa565b015160001983881b60f8161c19169055388080610eed565b91926020600181928685015181550194019201610e9a565b015190508d80610d4d565b9250600185016000526020600020906000935b601f1984168510610f8f576001945083601f19811610610f76575b505050811b016001830155610d65565b015160001960f88460031b161c191690558d8080610f66565b81810151835560209485019460019093019290910190610f4b565b015190508d80610cf0565b9250846000526020600020906000935b601f1984168510611006576001945083601f19811610610fed575b505050811b018255610d05565b015160001960f88460031b161c191690558d8080610fe0565b81810151835560209485019460019093019290910190610fc5565b634e487b7160e01b600052600060045260246000fd5b60405163f638326560e01b8152600490fd5b346101ad5760003660031901126101ad576007546040516001600160a01b039091168152602090f35b346101ad5760003660031901126101ad576020600154604051908152f35b346101ad5760203660031901126101ad576004356001600160a01b038116908190036101ad576000526000602052602060ff604060002054166040519015158152f35b346101ad5760c03660031901126101ad576001600160401b036004358181116101ad57611104903690600401611575565b6024358381116101ad5761111c903690600401611575565b90916044358581116101ad57611136903690600401611575565b959081606435116101ad573660236064350112156101ad578160643560040135116101ad573660246064356004013560051b6064350101116101ad5760a4358281116101ad5761118a903690600401611575565b929097604051858982376002868201526020818781010301902091600583015460ff8160081c16156102855760ff1615611481576002830154818116421061146f5760401c16421161145d5761120460018060a01b03600754169360405192631e8e1e1360e01b8452604060048501526044840191611765565b818103600319016024830152600460643501358082529093906001600160fb1b03106101ad5781602091818381602460643501986064356004013560051b8a848301376064356004013560051b010301915afa90811561145157600091611416575b501561140457606435600401351580156113db575b505050604051906020820183878237838301926112ac604082608435968760208201520360208101845201826117bd565b51902080600052600560205260ff604060002054166113c95760005260056020526040600020600160ff198254161790556112e83685876117de565b602081519101206040518488823760208186810160048152030190209060005260205260406000205480156113b757600019810190811161059257611342600391604051868a823760208188810186815203019020611824565b50019283549660018801809811610592577fc9409fdeda33831e15885072baf562cf5eba5c0d0194aed2692d6eb99d4d971c976104939555816040519283928337810160008152039020966113a4604051968796606088526060880191611765565b9260208601528483036040860152611765565b604051636fc1420760e01b8152600490fd5b604051636569570160e11b8152600490fd5b61049857600301549035036113f25786808061127b565b60405163010cbc0760e21b8152600490fd5b6040516309bde33960e01b8152600490fd5b90506020813d602011611449575b81611431602093836117bd565b810103126101ad575180151581036101ad5789611266565b3d9150611424565b6040513d6000823e3d90fd5b60405163066ec72360e41b8152600490fd5b6040516372a84ce560e11b8152600490fd5b604051638744898560e01b8152600490fd5b346101ad5760203660031901126101ad576004356001600160a01b03811691908290036101ad5733600052600060205260ff6040600020541615611566575080600052600060205260ff60406000205416156115545760018054111561154257806000526000602052604060002060ff1981541690556001546000198101908111610592576001557fa3b62bc36326052d97ea62d63c3d60308ed4c3ea8ac079dd8499f1e9c4f80c0f600080a2005b604051636dd049a160e01b8152600490fd5b6040516304b6c03f60e21b8152600490fd5b637bfa4b9f60e01b8152600490fd5b9181601f840112156101ad578235916001600160401b0383116101ad57602083818601950101116101ad57565b919082519283825260005b8481106115ce575050826000602080949584010152601f8019910116010190565b6020818301810151848301820152016115ad565b60406003198201126101ad57600435906001600160401b0382116101ad5761160c91600401611575565b909160243590565b90600182811c92168015611644575b602083101461162e57565b634e487b7160e01b600052602260045260246000fd5b91607f1691611623565b90601f811161165c57505050565b600091825260208220906020601f850160051c83019410611698575b601f0160051c01915b82811061168d57505050565b818155600101611681565b9092508290611678565b9092916001600160401b0381116104ae576116c7816116c18454611614565b8461164e565b6000601f821160011461170157819293946000926116f6575b50508160011b916000199060031b1c1916179055565b0135905038806116e0565b601f198216948382526020918281209281905b88821061174d57505083600195969710611733575b505050811b019055565b0135600019600384901b60f8161c19169055388080611729565b80600184968294958701358155019501920190611714565b908060209392818452848401376000828201840152601f01601f1916010190565b608081019081106001600160401b038211176104ae57604052565b61010081019081106001600160401b038211176104ae57604052565b90601f801991011681019081106001600160401b038211176104ae57604052565b9291926001600160401b0382116104ae5760405191611807601f8201601f1916602001846117bd565b8294818452818301116101ad578281602093846000960137010152565b80548210156104985760005260206000209060021b0190600090565b906040519182600082549261185484611614565b9081845260019485811690816000146118c35750600114611880575b505061187e925003836117bd565b565b9093915060005260209081600020936000915b8183106118ab57505061187e93508201013880611870565b85548884018501529485019487945091830191611893565b91505061187e94506020925060ff191682840152151560051b8201013880611870565b6001600160401b0381116104ae5760051b60200190565b80518210156104985760209160051b01019056fea2646970667358221220886533126a7b57b52cc8adc045a8c26da3cd4b02f540572ae4457209eb2edc6164736f6c63430008140033",
  "linkReferences": {},
  "deployedLinkReferences": {}
}